{
  "_format": "hh-sol-artifact-1",
  "contractName": "BlueVotes",
  "sourceName": "src/contracts/BlueVotes.sol",
  "abi": [
    {
      "anonymous": false,
      "inputs": [
        {
          "indexed": false,
          "internalType": "string",
          "name": "fullname",
          "type": "string"
        },
        {
          "indexed": true,
          "internalType": "address",
          "name": "voter",
          "type": "address"
        },
        {
          "indexed": false,
          "internalType": "uint256",
          "name": "timestamp",
          "type": "uint256"
        }
      ],
      "name": "Voted",
      "type": "event"
    },
    {
      "inputs": [
        {
          "internalType": "uint256",
          "name": "id",
          "type": "uint256"
        }
      ],
      "name": "contest",
      "outputs": [],
      "stateMutability": "nonpayable",
      "type": "function"
    },
    {
      "inputs": [
        {
          "internalType": "string",
          "name": "image",
          "type": "string"
        },
        {
          "internalType": "string",
          "name": "title",
          "type": "string"
        },
        {
          "internalType": "string",
          "name": "description",
          "type": "string"
        },
        {
          "internalType": "uint256",
          "name": "startsAt",
          "type": "uint256"
        },
        {
          "internalType": "uint256",
          "name": "endsAt",
          "type": "uint256"
        }
      ],
      "name": "createPoll",
      "outputs": [],
      "stateMutability": "nonpayable",
      "type": "function"
    },
    {
      "inputs": [
        {
          "internalType": "uint256",
          "name": "id",
          "type": "uint256"
        }
      ],
      "name": "deletePoll",
      "outputs": [],
      "stateMutability": "nonpayable",
      "type": "function"
    },
    {
      "inputs": [
        {
          "internalType": "uint256",
          "name": "id",
          "type": "uint256"
        }
      ],
      "name": "getPoll",
      "outputs": [
        {
          "components": [
            {
              "internalType": "uint256",
              "name": "id",
              "type": "uint256"
            },
            {
              "internalType": "string",
              "name": "image",
              "type": "string"
            },
            {
              "internalType": "string",
              "name": "title",
              "type": "string"
            },
            {
              "internalType": "string",
              "name": "description",
              "type": "string"
            },
            {
              "internalType": "uint256",
              "name": "votes",
              "type": "uint256"
            },
            {
              "internalType": "uint256",
              "name": "contestants",
              "type": "uint256"
            },
            {
              "internalType": "enum BlueVotes.PollStatus",
              "name": "status",
              "type": "uint8"
            },
            {
              "internalType": "address",
              "name": "director",
              "type": "address"
            },
            {
              "internalType": "uint256",
              "name": "startsAt",
              "type": "uint256"
            },
            {
              "internalType": "uint256",
              "name": "endsAt",
              "type": "uint256"
            },
            {
              "internalType": "uint256",
              "name": "timestamp",
              "type": "uint256"
            }
          ],
          "internalType": "struct BlueVotes.PollStruct",
          "name": "",
          "type": "tuple"
        }
      ],
      "stateMutability": "view",
      "type": "function"
    },
    {
      "inputs": [],
      "name": "getPolls",
      "outputs": [
        {
          "components": [
            {
              "internalType": "uint256",
              "name": "id",
              "type": "uint256"
            },
            {
              "internalType": "string",
              "name": "image",
              "type": "string"
            },
            {
              "internalType": "string",
              "name": "title",
              "type": "string"
            },
            {
              "internalType": "string",
              "name": "description",
              "type": "string"
            },
            {
              "internalType": "uint256",
              "name": "votes",
              "type": "uint256"
            },
            {
              "internalType": "uint256",
              "name": "contestants",
              "type": "uint256"
            },
            {
              "internalType": "enum BlueVotes.PollStatus",
              "name": "status",
              "type": "uint8"
            },
            {
              "internalType": "address",
              "name": "director",
              "type": "address"
            },
            {
              "internalType": "uint256",
              "name": "startsAt",
              "type": "uint256"
            },
            {
              "internalType": "uint256",
              "name": "endsAt",
              "type": "uint256"
            },
            {
              "internalType": "uint256",
              "name": "timestamp",
              "type": "uint256"
            }
          ],
          "internalType": "struct BlueVotes.PollStruct[]",
          "name": "Polls",
          "type": "tuple[]"
        }
      ],
      "stateMutability": "view",
      "type": "function"
    },
    {
      "inputs": [
        {
          "internalType": "uint256",
          "name": "id",
          "type": "uint256"
        }
      ],
      "name": "listContestants",
      "outputs": [
        {
          "components": [
            {
              "internalType": "uint256",
              "name": "id",
              "type": "uint256"
            },
            {
              "internalType": "string",
              "name": "image",
              "type": "string"
            },
            {
              "internalType": "string",
              "name": "fullname",
              "type": "string"
            },
            {
              "internalType": "address",
              "name": "voter",
              "type": "address"
            },
            {
              "internalType": "uint256",
              "name": "votes",
              "type": "uint256"
            },
            {
              "internalType": "address[]",
              "name": "voters",
              "type": "address[]"
            }
          ],
          "internalType": "struct BlueVotes.VoterStruct[]",
          "name": "Contestants",
          "type": "tuple[]"
        }
      ],
      "stateMutability": "view",
      "type": "function"
    },
    {
      "inputs": [
        {
          "internalType": "string",
          "name": "image",
          "type": "string"
        },
        {
          "internalType": "string",
          "name": "fullname",
          "type": "string"
        }
      ],
      "name": "register",
      "outputs": [],
      "stateMutability": "nonpayable",
      "type": "function"
    },
    {
      "inputs": [
        {
          "internalType": "uint256",
          "name": "id",
          "type": "uint256"
        },
        {
          "internalType": "string",
          "name": "image",
          "type": "string"
        },
        {
          "internalType": "string",
          "name": "title",
          "type": "string"
        },
        {
          "internalType": "string",
          "name": "description",
          "type": "string"
        },
        {
          "internalType": "uint256",
          "name": "startsAt",
          "type": "uint256"
        },
        {
          "internalType": "uint256",
          "name": "endsAt",
          "type": "uint256"
        }
      ],
      "name": "updatePoll",
      "outputs": [],
      "stateMutability": "nonpayable",
      "type": "function"
    },
    {
      "inputs": [
        {
          "internalType": "uint256",
          "name": "id",
          "type": "uint256"
        },
        {
          "internalType": "uint256",
          "name": "cid",
          "type": "uint256"
        }
      ],
      "name": "vote",
      "outputs": [],
      "stateMutability": "nonpayable",
      "type": "function"
    }
  ],
  "bytecode": "0x608060405234801561001057600080fd5b50611d9d806100206000396000f3fe608060405234801561001057600080fd5b50600436106100935760003560e01c80633ffbd47f116100665780633ffbd47f146100fe5780639d1c0bc614610111578063b384abef14610124578063dd2b4bd414610137578063f0d0bc451461015757600080fd5b8063029433f014610098578063120fe89b146100ad5780631a8cbcaa146100cb5780631f35b51d146100eb575b600080fd5b6100ab6100a63660046117e4565b61016a565b005b6100b5610401565b6040516100c291906119cf565b60405180910390f35b6100de6100d9366004611a31565b610726565b6040516100c29190611a4a565b6100ab6100f9366004611a31565b610990565b6100ab61010c366004611a64565b610a40565b6100ab61011f366004611a31565b610b0b565b6100ab610132366004611ac8565b610ea9565b61014a610145366004611a31565b611082565b6040516100c29190611aea565b6100ab610165366004611be3565b611346565b60008681526007602052604090205460ff166101a15760405162461bcd60e51b815260040161019890611c7d565b60405180910390fd5b60008681526002602052604090206006015461010090046001600160a01b031633146102055760405162461bcd60e51b8152602060048201526013602482015272556e617574686f72697a656420656e7469747960681b6044820152606401610198565b600084511161024e5760405162461bcd60e51b81526020600482015260156024820152745469746c652063616e6e6f7420626520656d70747960581b6044820152606401610198565b600083511161029f5760405162461bcd60e51b815260206004820152601b60248201527f4465736372697074696f6e2063616e6e6f7420626520656d70747900000000006044820152606401610198565b60008551116102ec5760405162461bcd60e51b8152602060048201526019602482015278496d6167652055524c2063616e6e6f7420626520656d70747960381b6044820152606401610198565b60008681526002602052604081206006015460ff166003811115610312576103126118d5565b111561035a5760405162461bcd60e51b8152602060048201526017602482015276141bdb1b1a5b99c8185b1c9958591e481cdd185c9d1959604a1b6044820152606401610198565b8181116103795760405162461bcd60e51b815260040161019890611ca5565b6000868152600260208181526040909220865161039e939190920191908701906115a4565b50600086815260026020908152604090912084516103c4926003909201918601906115a4565b506000868152600260209081526040909120600781018490556008810183905586516103f8926001909201918801906115a4565b50505050505050565b606060005467ffffffffffffffff81111561041e5761041e611741565b60405190808252806020026020018201604052801561045757816020015b610444611624565b81526020019060019003908161043c5790505b50905060005b60005481101561072257600360008281526002602052604090206006015460ff16600381111561048f5761048f6118d5565b14610710576002600082815260200190815260200160002060405180610160016040529081600082015481526020016001820180546104cd90611ced565b80601f01602080910402602001604051908101604052809291908181526020018280546104f990611ced565b80156105465780601f1061051b57610100808354040283529160200191610546565b820191906000526020600020905b81548152906001019060200180831161052957829003601f168201915b5050505050815260200160028201805461055f90611ced565b80601f016020809104026020016040519081016040528092919081815260200182805461058b90611ced565b80156105d85780601f106105ad576101008083540402835291602001916105d8565b820191906000526020600020905b8154815290600101906020018083116105bb57829003601f168201915b505050505081526020016003820180546105f190611ced565b80601f016020809104026020016040519081016040528092919081815260200182805461061d90611ced565b801561066a5780601f1061063f5761010080835404028352916020019161066a565b820191906000526020600020905b81548152906001019060200180831161064d57829003601f168201915b50505091835250506004820154602082015260058201546040820152600682015460609091019060ff1660038111156106a5576106a56118d5565b60038111156106b6576106b66118d5565b8152600682015461010090046001600160a01b031660208201526007820154604082015260088201546060820152600990910154608090910152825183908390811061070457610704611d28565b60200260200101819052505b8061071a81611d3e565b91505061045d565b5090565b61072e611624565b60026000838152602001908152602001600020604051806101600160405290816000820154815260200160018201805461076790611ced565b80601f016020809104026020016040519081016040528092919081815260200182805461079390611ced565b80156107e05780601f106107b5576101008083540402835291602001916107e0565b820191906000526020600020905b8154815290600101906020018083116107c357829003601f168201915b505050505081526020016002820180546107f990611ced565b80601f016020809104026020016040519081016040528092919081815260200182805461082590611ced565b80156108725780601f1061084757610100808354040283529160200191610872565b820191906000526020600020905b81548152906001019060200180831161085557829003601f168201915b5050505050815260200160038201805461088b90611ced565b80601f01602080910402602001604051908101604052809291908181526020018280546108b790611ced565b80156109045780601f106108d957610100808354040283529160200191610904565b820191906000526020600020905b8154815290600101906020018083116108e757829003601f168201915b50505091835250506004820154602082015260058201546040820152600682015460609091019060ff16600381111561093f5761093f6118d5565b6003811115610950576109506118d5565b8152600682015461010090046001600160a01b03166020820152600782015460408201526008820154606082015260099091015460809091015292915050565b60008181526007602052604090205460ff166109be5760405162461bcd60e51b815260040161019890611c7d565b60008181526002602052604090206006015461010090046001600160a01b03163314610a225760405162461bcd60e51b8152602060048201526013602482015272556e617574686f72697a656420656e7469747960681b6044820152606401610198565b6000908152600260205260409020600601805460ff19166003179055565b610a48611698565b60018054906000610a5883611d3e565b9091555081526020808201848152604080840185905233606085018190526000908152600384522083518155905180518493610a9b9260018501929101906115a4565b5060408201518051610ab79160028401916020909101906115a4565b5060608201516003820180546001600160a01b0319166001600160a01b039092169190911790556080820151600482015560a08201518051610b039160058401916020909101906116d7565b505050505050565b60008181526007602052604090205460ff16610b395760405162461bcd60e51b815260040161019890611c7d565b600081815260056020908152604080832033845290915290205460ff1615610b975760405162461bcd60e51b8152602060048201526011602482015270105b1c9958591e4818dbdb9d195cdd1959607a1b6044820152606401610198565b336000908152600360209081526040808320815160c08101909252805482526001810180549293919291840191610bcd90611ced565b80601f0160208091040260200160405190810160405280929190818152602001828054610bf990611ced565b8015610c465780601f10610c1b57610100808354040283529160200191610c46565b820191906000526020600020905b815481529060010190602001808311610c2957829003601f168201915b50505050508152602001600282018054610c5f90611ced565b80601f0160208091040260200160405190810160405280929190818152602001828054610c8b90611ced565b8015610cd85780601f10610cad57610100808354040283529160200191610cd8565b820191906000526020600020905b815481529060010190602001808311610cbb57829003601f168201915b505050505081526020016003820160009054906101000a90046001600160a01b03166001600160a01b03166001600160a01b031681526020016004820154815260200160058201805480602002602001604051908101604052809291908181526020018280548015610d7357602002820191906000526020600020905b81546001600160a01b03168152600190910190602001808311610d55575b505050919092525050506000838152600260209081526040808320600501548084526008909252909120549192509060ff16610ea45760008381526006602090815260408083208484528252909120835181558184015180518593610ddf9260018501929101906115a4565b5060408201518051610dfb9160028401916020909101906115a4565b5060608201516003820180546001600160a01b0319166001600160a01b039092169190911790556080820151600482015560a08201518051610e479160058401916020909101906116d7565b505050600083815260056020818152604080842033855282528084208054600160ff1991821681179092558751865260088452828620805490911690911790558684526002909152822001805491610e9e83611d3e565b91905055505b505050565b60008281526007602052604090205460ff16610ed75760405162461bcd60e51b815260040161019890611c7d565b600082815260046020908152604080832033845290915290205460ff1615610f315760405162461bcd60e51b815260206004820152600d60248201526c105b1c9958591e481d9bdd1959609a1b6044820152606401610198565b60008281526002602052604081206006015460ff166003811115610f5757610f576118d5565b1115610f9f5760405162461bcd60e51b8152602060048201526017602482015276141bdb1b1a5b99c8185b1c9958591e481cdd185c9d1959604a1b6044820152606401610198565b6000828152600260205260409020600781015460089091015411610fd55760405162461bcd60e51b815260040161019890611ca5565b6000828152600260205260408120600401805491610ff283611d3e565b90915550506000828152600660209081526040808320848452909152812060040180549161101f83611d3e565b909155505060008281526006602090815260408083209383529281528282206005018054600181810183559184528284200180546001600160a01b031916339081179091559483526004825283832094835293905220805460ff19169091179055565b60008181526007602052604090205460609060ff166110b35760405162461bcd60e51b815260040161019890611c7d565b6000828152600260205260409020600501548067ffffffffffffffff8111156110de576110de611741565b60405190808252806020026020018201604052801561111757816020015b611104611698565b8152602001906001900390816110fc5790505b50915060005b8181101561133f576000848152600660209081526040808320848452825291829020825160c0810190935280548352600181018054919284019161116090611ced565b80601f016020809104026020016040519081016040528092919081815260200182805461118c90611ced565b80156111d95780601f106111ae576101008083540402835291602001916111d9565b820191906000526020600020905b8154815290600101906020018083116111bc57829003601f168201915b505050505081526020016002820180546111f290611ced565b80601f016020809104026020016040519081016040528092919081815260200182805461121e90611ced565b801561126b5780601f106112405761010080835404028352916020019161126b565b820191906000526020600020905b81548152906001019060200180831161124e57829003601f168201915b505050505081526020016003820160009054906101000a90046001600160a01b03166001600160a01b03166001600160a01b03168152602001600482015481526020016005820180548060200260200160405190810160405280929190818152602001828054801561130657602002820191906000526020600020905b81546001600160a01b031681526001909101906020018083116112e8575b50505050508152505083828151811061132157611321611d28565b6020026020010181905250808061133790611d3e565b91505061111d565b5050919050565b600084511161138f5760405162461bcd60e51b81526020600482015260156024820152745469746c652063616e6e6f7420626520656d70747960581b6044820152606401610198565b60008351116113e05760405162461bcd60e51b815260206004820152601b60248201527f4465736372697074696f6e2063616e6e6f7420626520656d70747900000000006044820152606401610198565b600085511161142d5760405162461bcd60e51b8152602060048201526019602482015278496d6167652055524c2063616e6e6f7420626520656d70747960381b6044820152606401610198565b81811161144c5760405162461bcd60e51b815260040161019890611ca5565b611454611624565b60008054908061146383611d3e565b909155508082526040808301879052606083018690526020808401898152610100850187905261012085018690523360e086015260009384526002825291909220835181559051805184936114bf9260018501929101906115a4565b50604082015180516114db9160028401916020909101906115a4565b50606082015180516114f79160038401916020909101906115a4565b506080820151600482015560a0820151600582015560c082015160068201805460ff1916600183600381111561152f5761152f6118d5565b021790555060e0820151600682018054610100600160a81b0319166101006001600160a01b0390931683021790558201516007808301919091556101208301516008830155610140909201516009909101559051600090815260209190915260409020805460ff191660011790555050505050565b8280546115b090611ced565b90600052602060002090601f0160209004810192826115d25760008555611618565b82601f106115eb57805160ff1916838001178555611618565b82800160010185558215611618579182015b828111156116185782518255916020019190600101906115fd565b5061072292915061172c565b6040518061016001604052806000815260200160608152602001606081526020016060815260200160008152602001600081526020016000600381111561166d5761166d6118d5565b815260200160006001600160a01b031681526020016000815260200160008152602001600081525090565b6040518060c0016040528060008152602001606081526020016060815260200160006001600160a01b0316815260200160008152602001606081525090565b828054828255906000526020600020908101928215611618579160200282015b8281111561161857825182546001600160a01b0319166001600160a01b039091161782556020909201916001909101906116f7565b5b80821115610722576000815560010161172d565b634e487b7160e01b600052604160045260246000fd5b600082601f83011261176857600080fd5b813567ffffffffffffffff8082111561178357611783611741565b604051601f8301601f19908116603f011681019082821181831017156117ab576117ab611741565b816040528381528660208588010111156117c457600080fd5b836020870160208301376000602085830101528094505050505092915050565b60008060008060008060c087890312156117fd57600080fd5b86359550602087013567ffffffffffffffff8082111561181c57600080fd5b6118288a838b01611757565b9650604089013591508082111561183e57600080fd5b61184a8a838b01611757565b9550606089013591508082111561186057600080fd5b5061186d89828a01611757565b9350506080870135915060a087013590509295509295509295565b6000815180845260005b818110156118ae57602081850181015186830182015201611892565b818111156118c0576000602083870101525b50601f01601f19169290920160200192915050565b634e487b7160e01b600052602160045260246000fd5b6004811061190957634e487b7160e01b600052602160045260246000fd5b9052565b600061016082518452602083015181602086015261192d82860182611888565b915050604083015184820360408601526119478282611888565b915050606083015184820360608601526119618282611888565b9150506080830151608085015260a083015160a085015260c083015161198a60c08601826118eb565b5060e08301516119a560e08601826001600160a01b03169052565b50610100838101519085015261012080840151908501526101409283015192909301919091525090565b6000602080830181845280855180835260408601915060408160051b870101925083870160005b82811015611a2457603f19888603018452611a1285835161190d565b945092850192908501906001016119f6565b5092979650505050505050565b600060208284031215611a4357600080fd5b5035919050565b602081526000611a5d602083018461190d565b9392505050565b60008060408385031215611a7757600080fd5b823567ffffffffffffffff80821115611a8f57600080fd5b611a9b86838701611757565b93506020850135915080821115611ab157600080fd5b50611abe85828601611757565b9150509250929050565b60008060408385031215611adb57600080fd5b50508035926020909101359150565b60006020808301818452808551808352604092508286019150828160051b8701018488016000805b84811015611bd457603f198a8503018652825160c08151865289820151818b880152611b4082880182611888565b915050888201518682038a880152611b588282611888565b6060848101516001600160a01b03908116918a0191909152608080860151908a015260a094850151898303958a01959095528451808352948d0194879450918d0192505b81841015611bbe57845181168352938c019360019390930192918c0191611b9c565b5050978a01979550505091870191600101611b12565b50919998505050505050505050565b600080600080600060a08688031215611bfb57600080fd5b853567ffffffffffffffff80821115611c1357600080fd5b611c1f89838a01611757565b96506020880135915080821115611c3557600080fd5b611c4189838a01611757565b95506040880135915080821115611c5757600080fd5b50611c6488828901611757565b9598949750949560608101359550608001359392505050565b6020808252600e908201526d141bdb1b081b9bdd08199bdd5b9960921b604082015260600190565b60208082526028908201527f456e642064617465206d7573742062652067726561746572207468616e207374604082015267617274206461746560c01b606082015260800190565b600181811c90821680611d0157607f821691505b60208210811415611d2257634e487b7160e01b600052602260045260246000fd5b50919050565b634e487b7160e01b600052603260045260246000fd5b6000600019821415611d6057634e487b7160e01b600052601160045260246000fd5b506001019056fea264697066735822122060d6d8d205df57b4c0bb9a1c1f22dc9e336de762b92c0b62c2f76e78997903f464736f6c634300080b0033",
  "linkReferences": {},
  "deployedLinkReferences": {}
}