{
  "_format": "hh-sol-artifact-1",
  "contractName": "BlueVotes",
  "sourceName": "src/contracts/BlueVotes.sol",
  "abi": [
    {
      "anonymous": false,
      "inputs": [
        {
          "indexed": false,
          "internalType": "string",
          "name": "fullname",
          "type": "string"
        },
        {
          "indexed": true,
          "internalType": "address",
          "name": "voter",
          "type": "address"
        },
        {
          "indexed": false,
          "internalType": "uint256",
          "name": "timestamp",
          "type": "uint256"
        }
      ],
      "name": "Voted",
      "type": "event"
    },
    {
      "inputs": [
        {
          "internalType": "uint256",
          "name": "id",
          "type": "uint256"
        }
      ],
      "name": "contest",
      "outputs": [],
      "stateMutability": "nonpayable",
      "type": "function"
    },
    {
      "inputs": [
        {
          "internalType": "string",
          "name": "image",
          "type": "string"
        },
        {
          "internalType": "string",
          "name": "title",
          "type": "string"
        },
        {
          "internalType": "string",
          "name": "description",
          "type": "string"
        },
        {
          "internalType": "uint256",
          "name": "startsAt",
          "type": "uint256"
        },
        {
          "internalType": "uint256",
          "name": "endsAt",
          "type": "uint256"
        }
      ],
      "name": "createPoll",
      "outputs": [],
      "stateMutability": "nonpayable",
      "type": "function"
    },
    {
      "inputs": [
        {
          "internalType": "uint256",
          "name": "id",
          "type": "uint256"
        }
      ],
      "name": "deletePoll",
      "outputs": [],
      "stateMutability": "nonpayable",
      "type": "function"
    },
    {
      "inputs": [
        {
          "internalType": "uint256",
          "name": "id",
          "type": "uint256"
        }
      ],
      "name": "getPoll",
      "outputs": [
        {
          "components": [
            {
              "internalType": "uint256",
              "name": "id",
              "type": "uint256"
            },
            {
              "internalType": "string",
              "name": "image",
              "type": "string"
            },
            {
              "internalType": "string",
              "name": "title",
              "type": "string"
            },
            {
              "internalType": "string",
              "name": "description",
              "type": "string"
            },
            {
              "internalType": "uint256",
              "name": "votes",
              "type": "uint256"
            },
            {
              "internalType": "uint256",
              "name": "contestants",
              "type": "uint256"
            },
            {
              "internalType": "bool",
              "name": "deleted",
              "type": "bool"
            },
            {
              "internalType": "address",
              "name": "director",
              "type": "address"
            },
            {
              "internalType": "uint256",
              "name": "startsAt",
              "type": "uint256"
            },
            {
              "internalType": "uint256",
              "name": "endsAt",
              "type": "uint256"
            },
            {
              "internalType": "uint256",
              "name": "timestamp",
              "type": "uint256"
            }
          ],
          "internalType": "struct BlueVotes.PollStruct",
          "name": "",
          "type": "tuple"
        }
      ],
      "stateMutability": "view",
      "type": "function"
    },
    {
      "inputs": [],
      "name": "getPolls",
      "outputs": [
        {
          "components": [
            {
              "internalType": "uint256",
              "name": "id",
              "type": "uint256"
            },
            {
              "internalType": "string",
              "name": "image",
              "type": "string"
            },
            {
              "internalType": "string",
              "name": "title",
              "type": "string"
            },
            {
              "internalType": "string",
              "name": "description",
              "type": "string"
            },
            {
              "internalType": "uint256",
              "name": "votes",
              "type": "uint256"
            },
            {
              "internalType": "uint256",
              "name": "contestants",
              "type": "uint256"
            },
            {
              "internalType": "bool",
              "name": "deleted",
              "type": "bool"
            },
            {
              "internalType": "address",
              "name": "director",
              "type": "address"
            },
            {
              "internalType": "uint256",
              "name": "startsAt",
              "type": "uint256"
            },
            {
              "internalType": "uint256",
              "name": "endsAt",
              "type": "uint256"
            },
            {
              "internalType": "uint256",
              "name": "timestamp",
              "type": "uint256"
            }
          ],
          "internalType": "struct BlueVotes.PollStruct[]",
          "name": "",
          "type": "tuple[]"
        }
      ],
      "stateMutability": "view",
      "type": "function"
    },
    {
      "inputs": [
        {
          "internalType": "uint256",
          "name": "id",
          "type": "uint256"
        }
      ],
      "name": "listContestants",
      "outputs": [
        {
          "components": [
            {
              "internalType": "uint256",
              "name": "id",
              "type": "uint256"
            },
            {
              "internalType": "string",
              "name": "image",
              "type": "string"
            },
            {
              "internalType": "string",
              "name": "fullname",
              "type": "string"
            },
            {
              "internalType": "address",
              "name": "voter",
              "type": "address"
            },
            {
              "internalType": "uint256",
              "name": "votes",
              "type": "uint256"
            },
            {
              "internalType": "address[]",
              "name": "voters",
              "type": "address[]"
            }
          ],
          "internalType": "struct BlueVotes.VoterStruct[]",
          "name": "",
          "type": "tuple[]"
        }
      ],
      "stateMutability": "view",
      "type": "function"
    },
    {
      "inputs": [
        {
          "internalType": "string",
          "name": "image",
          "type": "string"
        },
        {
          "internalType": "string",
          "name": "fullname",
          "type": "string"
        }
      ],
      "name": "register",
      "outputs": [],
      "stateMutability": "nonpayable",
      "type": "function"
    },
    {
      "inputs": [
        {
          "internalType": "uint256",
          "name": "id",
          "type": "uint256"
        },
        {
          "internalType": "string",
          "name": "image",
          "type": "string"
        },
        {
          "internalType": "string",
          "name": "title",
          "type": "string"
        },
        {
          "internalType": "string",
          "name": "description",
          "type": "string"
        },
        {
          "internalType": "uint256",
          "name": "startsAt",
          "type": "uint256"
        },
        {
          "internalType": "uint256",
          "name": "endsAt",
          "type": "uint256"
        }
      ],
      "name": "updatePoll",
      "outputs": [],
      "stateMutability": "nonpayable",
      "type": "function"
    },
    {
      "inputs": [
        {
          "internalType": "address",
          "name": "",
          "type": "address"
        }
      ],
      "name": "users",
      "outputs": [
        {
          "internalType": "uint256",
          "name": "id",
          "type": "uint256"
        },
        {
          "internalType": "string",
          "name": "image",
          "type": "string"
        },
        {
          "internalType": "string",
          "name": "fullname",
          "type": "string"
        },
        {
          "internalType": "address",
          "name": "voter",
          "type": "address"
        },
        {
          "internalType": "uint256",
          "name": "votes",
          "type": "uint256"
        }
      ],
      "stateMutability": "view",
      "type": "function"
    },
    {
      "inputs": [
        {
          "internalType": "uint256",
          "name": "id",
          "type": "uint256"
        },
        {
          "internalType": "uint256",
          "name": "cid",
          "type": "uint256"
        }
      ],
      "name": "vote",
      "outputs": [],
      "stateMutability": "nonpayable",
      "type": "function"
    }
  ],
  "bytecode": "0x608060405234801561001057600080fd5b506121ee806100206000396000f3fe608060405234801561001057600080fd5b506004361061009e5760003560e01c80639d1c0bc6116100665780639d1c0bc61461011c578063a87430ba1461012f578063b384abef14610153578063dd2b4bd414610166578063f0d0bc451461018657600080fd5b8063029433f0146100a3578063120fe89b146100b85780631a8cbcaa146100d65780631f35b51d146100f65780633ffbd47f14610109575b600080fd5b6100b66100b1366004611b13565b610199565b005b6100c0610508565b6040516100cd9190611cc7565b60405180910390f35b6100e96100e4366004611d29565b610783565b6040516100cd9190611d42565b6100b6610104366004611d29565b6109d4565b6100b6610117366004611d5c565b610af8565b6100b661012a366004611d29565b610bfd565b61014261013d366004611dc0565b610fbb565b6040516100cd959493929190611de9565b6100b6610161366004611e32565b611104565b610179610174366004611d29565b6113da565b6040516100cd9190611e54565b6100b6610194366004611f4d565b61163a565b33600081815260036020819052604090912001546001600160a01b0316146101dc5760405162461bcd60e51b81526004016101d390611fe7565b60405180910390fd5b60008681526007602052604090205460ff1661020a5760405162461bcd60e51b81526004016101d39061201e565b336001600160a01b03166002878154811061022757610227612046565b60009182526020909120600a909102016006015461010090046001600160a01b03161461028c5760405162461bcd60e51b8152602060048201526013602482015272556e617574686f72697a656420656e7469747960681b60448201526064016101d3565b60008451116102d55760405162461bcd60e51b81526020600482015260156024820152745469746c652063616e6e6f7420626520656d70747960581b60448201526064016101d3565b60008351116103265760405162461bcd60e51b815260206004820152601b60248201527f4465736372697074696f6e2063616e6e6f7420626520656d707479000000000060448201526064016101d3565b60008551116103735760405162461bcd60e51b8152602060048201526019602482015278496d6167652055524c2063616e6e6f7420626520656d70747960381b60448201526064016101d3565b6002868154811061038657610386612046565b600091825260209091206006600a90920201015460ff16156103e45760405162461bcd60e51b8152602060048201526017602482015276141bdb1b1a5b99c8185b1c9958591e481cdd185c9d1959604a1b60448201526064016101d3565b8181116104035760405162461bcd60e51b81526004016101d39061205c565b836002878154811061041757610417612046565b90600052602060002090600a0201600201908051906020019061043b92919061191d565b50826002878154811061045057610450612046565b90600052602060002090600a0201600301908051906020019061047492919061191d565b50816002878154811061048957610489612046565b90600052602060002090600a02016007018190555080600287815481106104b2576104b2612046565b90600052602060002090600a02016008018190555084600287815481106104db576104db612046565b90600052602060002090600a020160010190805190602001906104ff92919061191d565b50505050505050565b60606002805480602002602001604051908101604052809291908181526020016000905b8282101561077a57838290600052602060002090600a0201604051806101600160405290816000820154815260200160018201805461056a906120a4565b80601f0160208091040260200160405190810160405280929190818152602001828054610596906120a4565b80156105e35780601f106105b8576101008083540402835291602001916105e3565b820191906000526020600020905b8154815290600101906020018083116105c657829003601f168201915b505050505081526020016002820180546105fc906120a4565b80601f0160208091040260200160405190810160405280929190818152602001828054610628906120a4565b80156106755780601f1061064a57610100808354040283529160200191610675565b820191906000526020600020905b81548152906001019060200180831161065857829003601f168201915b5050505050815260200160038201805461068e906120a4565b80601f01602080910402602001604051908101604052809291908181526020018280546106ba906120a4565b80156107075780601f106106dc57610100808354040283529160200191610707565b820191906000526020600020905b8154815290600101906020018083116106ea57829003601f168201915b5050509183525050600482015460208083019190915260058301546040830152600683015460ff81161515606084015261010090046001600160a01b03166080830152600783015460a0830152600883015460c083015260099092015460e090910152908252600192909201910161052c565b50505050905090565b61078b6119a1565b6002828154811061079e5761079e612046565b90600052602060002090600a020160405180610160016040529081600082015481526020016001820180546107d2906120a4565b80601f01602080910402602001604051908101604052809291908181526020018280546107fe906120a4565b801561084b5780601f106108205761010080835404028352916020019161084b565b820191906000526020600020905b81548152906001019060200180831161082e57829003601f168201915b50505050508152602001600282018054610864906120a4565b80601f0160208091040260200160405190810160405280929190818152602001828054610890906120a4565b80156108dd5780601f106108b2576101008083540402835291602001916108dd565b820191906000526020600020905b8154815290600101906020018083116108c057829003601f168201915b505050505081526020016003820180546108f6906120a4565b80601f0160208091040260200160405190810160405280929190818152602001828054610922906120a4565b801561096f5780601f106109445761010080835404028352916020019161096f565b820191906000526020600020905b81548152906001019060200180831161095257829003601f168201915b50505091835250506004820154602082015260058201546040820152600682015460ff81161515606083015261010090046001600160a01b03166080820152600782015460a0820152600882015460c082015260099091015460e09091015292915050565b33600081815260036020819052604090912001546001600160a01b031614610a0e5760405162461bcd60e51b81526004016101d390611fe7565b60008181526007602052604090205460ff16610a3c5760405162461bcd60e51b81526004016101d39061201e565b336001600160a01b031660028281548110610a5957610a59612046565b60009182526020909120600a909102016006015461010090046001600160a01b031614610abe5760405162461bcd60e51b8152602060048201526013602482015272556e617574686f72697a656420656e7469747960681b60448201526064016101d3565b600160028281548110610ad357610ad3612046565b60009182526020909120600a90910201600601805460ff191691151591909117905550565b610b3a6040518060c0016040528060008152602001606081526020016060815260200160006001600160a01b0316815260200160008152602001606081525090565b60018054906000610b4a836120df565b9091555081526020808201848152604080840185905233606085018190526000908152600384522083518155905180518493610b8d92600185019291019061191d565b5060408201518051610ba991600284019160209091019061191d565b5060608201516003820180546001600160a01b0319166001600160a01b039092169190911790556080820151600482015560a08201518051610bf5916005840191602090910190611a06565b505050505050565b33600081815260036020819052604090912001546001600160a01b031614610c375760405162461bcd60e51b81526004016101d390611fe7565b60008181526007602052604090205460ff16610c655760405162461bcd60e51b81526004016101d39061201e565b600081815260056020908152604080832033845290915290205460ff1615610cc35760405162461bcd60e51b8152602060048201526011602482015270105b1c9958591e4818dbdb9d195cdd1959607a1b60448201526064016101d3565b336000908152600360209081526040808320815160c08101909252805482526001810180549293919291840191610cf9906120a4565b80601f0160208091040260200160405190810160405280929190818152602001828054610d25906120a4565b8015610d725780601f10610d4757610100808354040283529160200191610d72565b820191906000526020600020905b815481529060010190602001808311610d5557829003601f168201915b50505050508152602001600282018054610d8b906120a4565b80601f0160208091040260200160405190810160405280929190818152602001828054610db7906120a4565b8015610e045780601f10610dd957610100808354040283529160200191610e04565b820191906000526020600020905b815481529060010190602001808311610de757829003601f168201915b505050505081526020016003820160009054906101000a90046001600160a01b03166001600160a01b03166001600160a01b031681526020016004820154815260200160058201805480602002602001604051908101604052809291908181526020018280548015610e9f57602002820191906000526020600020905b81546001600160a01b03168152600190910190602001808311610e81575b5050509190925250505060008381526006602081815260408320805460018181018355918552938290208551949093029092019283558084015180519495508594610ef193850192919091019061191d565b5060408201518051610f0d91600284019160209091019061191d565b5060608201516003820180546001600160a01b0319166001600160a01b039092169190911790556080820151600482015560a08201518051610f59916005840191602090910190611a06565b50505060008281526005602090815260408083203384529091529020805460ff191660011790556002805483908110610f9457610f94612046565b6000918252602082206005600a9092020101805491610fb2836120df565b91905055505050565b60036020526000908152604090208054600182018054919291610fdd906120a4565b80601f0160208091040260200160405190810160405280929190818152602001828054611009906120a4565b80156110565780601f1061102b57610100808354040283529160200191611056565b820191906000526020600020905b81548152906001019060200180831161103957829003601f168201915b50505050509080600201805461106b906120a4565b80601f0160208091040260200160405190810160405280929190818152602001828054611097906120a4565b80156110e45780601f106110b9576101008083540402835291602001916110e4565b820191906000526020600020905b8154815290600101906020018083116110c757829003601f168201915b50505050600383015460049093015491926001600160a01b031691905085565b33600081815260036020819052604090912001546001600160a01b03161461113e5760405162461bcd60e51b81526004016101d390611fe7565b60008281526007602052604090205460ff1661116c5760405162461bcd60e51b81526004016101d39061201e565b600082815260046020908152604080832033845290915290205460ff16156111c65760405162461bcd60e51b815260206004820152600d60248201526c105b1c9958591e481d9bdd1959609a1b60448201526064016101d3565b600282815481106111d9576111d9612046565b600091825260209091206006600a90920201015460ff16156112375760405162461bcd60e51b8152602060048201526017602482015276141bdb1b1a5b99c8185b1c9958591e481cdd185c9d1959604a1b60448201526064016101d3565b6002828154811061124a5761124a612046565b90600052602060002090600a0201600701546002838154811061126f5761126f612046565b90600052602060002090600a0201600801541161129e5760405162461bcd60e51b81526004016101d39061205c565b600282815481106112b1576112b1612046565b6000918252602082206004600a90920201018054916112cf836120df565b909155505060008281526006602052604090208054829081106112f4576112f4612046565b600091825260208220600460069092020101805491611312836120df565b9091555050600082815260066020526040902080548290811061133757611337612046565b600091825260208083206005600690930201919091018054600181810183559184528284200180546001600160a01b031916339081179091558584526004835260408085208286528452808520805460ff1916909317909255600390925291829020915190917f06d72643834bbccea11dfeb41d4aa1a5977f5cb34f87719f71daa6b2b76f29aa916113ce91600201904290612108565b60405180910390a25050565b60008181526007602052604090205460609060ff1661140b5760405162461bcd60e51b81526004016101d39061201e565b600082815260066020908152604080832080548251818502810185019093528083529193909284015b8282101561162f57838290600052602060002090600602016040518060c001604052908160008201548152602001600182018054611471906120a4565b80601f016020809104026020016040519081016040528092919081815260200182805461149d906120a4565b80156114ea5780601f106114bf576101008083540402835291602001916114ea565b820191906000526020600020905b8154815290600101906020018083116114cd57829003601f168201915b50505050508152602001600282018054611503906120a4565b80601f016020809104026020016040519081016040528092919081815260200182805461152f906120a4565b801561157c5780601f106115515761010080835404028352916020019161157c565b820191906000526020600020905b81548152906001019060200180831161155f57829003601f168201915b505050505081526020016003820160009054906101000a90046001600160a01b03166001600160a01b03166001600160a01b03168152602001600482015481526020016005820180548060200260200160405190810160405280929190818152602001828054801561161757602002820191906000526020600020905b81546001600160a01b031681526001909101906020018083116115f9575b50505050508152505081526020019060010190611434565b505050509050919050565b33600081815260036020819052604090912001546001600160a01b0316146116745760405162461bcd60e51b81526004016101d390611fe7565b60008451116116bd5760405162461bcd60e51b81526020600482015260156024820152745469746c652063616e6e6f7420626520656d70747960581b60448201526064016101d3565b600083511161170e5760405162461bcd60e51b815260206004820152601b60248201527f4465736372697074696f6e2063616e6e6f7420626520656d707479000000000060448201526064016101d3565b600085511161175b5760405162461bcd60e51b8152602060048201526019602482015278496d6167652055524c2063616e6e6f7420626520656d70747960381b60448201526064016101d3565b60008211801561176a57508181115b6117865760405162461bcd60e51b81526004016101d39061205c565b61178e6119a1565b60008054908061179d836120df565b90915550815260408101859052606081018490526020808201878152610100830185905261012083018490523360e0840152426101408401526002805460018101825560009190915283517f405787fa12a823e0f2b7631cc41b3ba8828b3321ca811111fa75cd3aa3bb5ace600a909202918201908155915180518594611848937f405787fa12a823e0f2b7631cc41b3ba8828b3321ca811111fa75cd3aa3bb5acf0192019061191d565b506040820151805161186491600284019160209091019061191d565b506060820151805161188091600384019160209091019061191d565b506080820151600482015560a0820151600582015560c082015160068201805460e08501516001600160a81b0319909116921515610100600160a81b031916929092176101006001600160a01b0390931683021790558201516007808301919091556101208301516008830155610140909201516009909101559051600090815260209190915260409020805460ff191660011790555050505050565b828054611929906120a4565b90600052602060002090601f01602090048101928261194b5760008555611991565b82601f1061196457805160ff1916838001178555611991565b82800160010185558215611991579182015b82811115611991578251825591602001919060010190611976565b5061199d929150611a5b565b5090565b60405180610160016040528060008152602001606081526020016060815260200160608152602001600081526020016000815260200160001515815260200160006001600160a01b031681526020016000815260200160008152602001600081525090565b828054828255906000526020600020908101928215611991579160200282015b8281111561199157825182546001600160a01b0319166001600160a01b03909116178255602090920191600190910190611a26565b5b8082111561199d5760008155600101611a5c565b634e487b7160e01b600052604160045260246000fd5b600082601f830112611a9757600080fd5b813567ffffffffffffffff80821115611ab257611ab2611a70565b604051601f8301601f19908116603f01168101908282118183101715611ada57611ada611a70565b81604052838152866020858801011115611af357600080fd5b836020870160208301376000602085830101528094505050505092915050565b60008060008060008060c08789031215611b2c57600080fd5b86359550602087013567ffffffffffffffff80821115611b4b57600080fd5b611b578a838b01611a86565b96506040890135915080821115611b6d57600080fd5b611b798a838b01611a86565b95506060890135915080821115611b8f57600080fd5b50611b9c89828a01611a86565b9350506080870135915060a087013590509295509295509295565b6000815180845260005b81811015611bdd57602081850181015186830182015201611bc1565b81811115611bef576000602083870101525b50601f01601f19169290920160200192915050565b6000610160825184526020830151816020860152611c2482860182611bb7565b91505060408301518482036040860152611c3e8282611bb7565b91505060608301518482036060860152611c588282611bb7565b9150506080830151608085015260a083015160a085015260c0830151611c8260c086018215159052565b5060e0830151611c9d60e08601826001600160a01b03169052565b50610100838101519085015261012080840151908501526101409283015192909301919091525090565b6000602080830181845280855180835260408601915060408160051b870101925083870160005b82811015611d1c57603f19888603018452611d0a858351611c04565b94509285019290850190600101611cee565b5092979650505050505050565b600060208284031215611d3b57600080fd5b5035919050565b602081526000611d556020830184611c04565b9392505050565b60008060408385031215611d6f57600080fd5b823567ffffffffffffffff80821115611d8757600080fd5b611d9386838701611a86565b93506020850135915080821115611da957600080fd5b50611db685828601611a86565b9150509250929050565b600060208284031215611dd257600080fd5b81356001600160a01b0381168114611d5557600080fd5b85815260a060208201526000611e0260a0830187611bb7565b8281036040840152611e148187611bb7565b6001600160a01b039590951660608401525050608001529392505050565b60008060408385031215611e4557600080fd5b50508035926020909101359150565b60006020808301818452808551808352604092508286019150828160051b8701018488016000805b84811015611f3e57603f198a8503018652825160c08151865289820151818b880152611eaa82880182611bb7565b915050888201518682038a880152611ec28282611bb7565b6060848101516001600160a01b03908116918a0191909152608080860151908a015260a094850151898303958a01959095528451808352948d0194879450918d0192505b81841015611f2857845181168352938c019360019390930192918c0191611f06565b5050978a01979550505091870191600101611e7c565b50919998505050505050505050565b600080600080600060a08688031215611f6557600080fd5b853567ffffffffffffffff80821115611f7d57600080fd5b611f8989838a01611a86565b96506020880135915080821115611f9f57600080fd5b611fab89838a01611a86565b95506040880135915080821115611fc157600080fd5b50611fce88828901611a86565b9598949750949560608101359550608001359392505050565b6020808252601b908201527f596f7527766520676f7474612072656769737465722066697273740000000000604082015260600190565b6020808252600e908201526d141bdb1b081b9bdd08199bdd5b9960921b604082015260600190565b634e487b7160e01b600052603260045260246000fd5b60208082526028908201527f456e642064617465206d7573742062652067726561746572207468616e207374604082015267617274206461746560c01b606082015260800190565b600181811c908216806120b857607f821691505b602082108114156120d957634e487b7160e01b600052602260045260246000fd5b50919050565b600060001982141561210157634e487b7160e01b600052601160045260246000fd5b5060010190565b60408152600080845481600182811c91508083168061212857607f831692505b602080841082141561214857634e487b7160e01b86526022600452602486fd5b60408801849052606088018280156121675760018114612178576121a3565b60ff198716825282820197506121a3565b60008c81526020902060005b8781101561219d57815484820152908601908401612184565b83019850505b5050969096019690965250909594505050505056fea2646970667358221220d9e047d61c1aaa685386a360ccbd6607e3dcde1eaf8df695c2fa17e062157fa764736f6c634300080b0033",
  "linkReferences": {},
  "deployedLinkReferences": {}
}