{
  "_format": "hh-sol-artifact-1",
  "contractName": "BlueVotes",
  "sourceName": "src/contracts/BlueVotes.sol",
  "abi": [
    {
      "anonymous": false,
      "inputs": [
        {
          "indexed": false,
          "internalType": "string",
          "name": "fullname",
          "type": "string"
        },
        {
          "indexed": true,
          "internalType": "address",
          "name": "voter",
          "type": "address"
        },
        {
          "indexed": false,
          "internalType": "uint256",
          "name": "timestamp",
          "type": "uint256"
        }
      ],
      "name": "Voted",
      "type": "event"
    },
    {
      "inputs": [
        {
          "internalType": "uint256",
          "name": "id",
          "type": "uint256"
        }
      ],
      "name": "contest",
      "outputs": [],
      "stateMutability": "nonpayable",
      "type": "function"
    },
    {
      "inputs": [
        {
          "internalType": "string",
          "name": "image",
          "type": "string"
        },
        {
          "internalType": "string",
          "name": "title",
          "type": "string"
        },
        {
          "internalType": "string",
          "name": "description",
          "type": "string"
        },
        {
          "internalType": "uint256",
          "name": "startsAt",
          "type": "uint256"
        },
        {
          "internalType": "uint256",
          "name": "endsAt",
          "type": "uint256"
        }
      ],
      "name": "createPoll",
      "outputs": [],
      "stateMutability": "nonpayable",
      "type": "function"
    },
    {
      "inputs": [
        {
          "internalType": "uint256",
          "name": "id",
          "type": "uint256"
        }
      ],
      "name": "deletePoll",
      "outputs": [],
      "stateMutability": "nonpayable",
      "type": "function"
    },
    {
      "inputs": [
        {
          "internalType": "uint256",
          "name": "id",
          "type": "uint256"
        }
      ],
      "name": "getPoll",
      "outputs": [
        {
          "components": [
            {
              "internalType": "uint256",
              "name": "id",
              "type": "uint256"
            },
            {
              "internalType": "string",
              "name": "image",
              "type": "string"
            },
            {
              "internalType": "string",
              "name": "title",
              "type": "string"
            },
            {
              "internalType": "string",
              "name": "description",
              "type": "string"
            },
            {
              "internalType": "uint256",
              "name": "votes",
              "type": "uint256"
            },
            {
              "internalType": "uint256",
              "name": "contestants",
              "type": "uint256"
            },
            {
              "internalType": "bool",
              "name": "deleted",
              "type": "bool"
            },
            {
              "internalType": "address",
              "name": "director",
              "type": "address"
            },
            {
              "internalType": "uint256",
              "name": "startsAt",
              "type": "uint256"
            },
            {
              "internalType": "uint256",
              "name": "endsAt",
              "type": "uint256"
            },
            {
              "internalType": "uint256",
              "name": "timestamp",
              "type": "uint256"
            }
          ],
          "internalType": "struct BlueVotes.PollStruct",
          "name": "",
          "type": "tuple"
        }
      ],
      "stateMutability": "view",
      "type": "function"
    },
    {
      "inputs": [],
      "name": "getPolls",
      "outputs": [
        {
          "components": [
            {
              "internalType": "uint256",
              "name": "id",
              "type": "uint256"
            },
            {
              "internalType": "string",
              "name": "image",
              "type": "string"
            },
            {
              "internalType": "string",
              "name": "title",
              "type": "string"
            },
            {
              "internalType": "string",
              "name": "description",
              "type": "string"
            },
            {
              "internalType": "uint256",
              "name": "votes",
              "type": "uint256"
            },
            {
              "internalType": "uint256",
              "name": "contestants",
              "type": "uint256"
            },
            {
              "internalType": "bool",
              "name": "deleted",
              "type": "bool"
            },
            {
              "internalType": "address",
              "name": "director",
              "type": "address"
            },
            {
              "internalType": "uint256",
              "name": "startsAt",
              "type": "uint256"
            },
            {
              "internalType": "uint256",
              "name": "endsAt",
              "type": "uint256"
            },
            {
              "internalType": "uint256",
              "name": "timestamp",
              "type": "uint256"
            }
          ],
          "internalType": "struct BlueVotes.PollStruct[]",
          "name": "",
          "type": "tuple[]"
        }
      ],
      "stateMutability": "view",
      "type": "function"
    },
    {
      "inputs": [
        {
          "internalType": "uint256",
          "name": "id",
          "type": "uint256"
        }
      ],
      "name": "listContestants",
      "outputs": [
        {
          "components": [
            {
              "internalType": "uint256",
              "name": "id",
              "type": "uint256"
            },
            {
              "internalType": "string",
              "name": "image",
              "type": "string"
            },
            {
              "internalType": "string",
              "name": "fullname",
              "type": "string"
            },
            {
              "internalType": "address",
              "name": "voter",
              "type": "address"
            },
            {
              "internalType": "uint256",
              "name": "votes",
              "type": "uint256"
            },
            {
              "internalType": "address[]",
              "name": "voters",
              "type": "address[]"
            }
          ],
          "internalType": "struct BlueVotes.VoterStruct[]",
          "name": "",
          "type": "tuple[]"
        }
      ],
      "stateMutability": "view",
      "type": "function"
    },
    {
      "inputs": [
        {
          "internalType": "string",
          "name": "image",
          "type": "string"
        },
        {
          "internalType": "string",
          "name": "fullname",
          "type": "string"
        }
      ],
      "name": "register",
      "outputs": [],
      "stateMutability": "nonpayable",
      "type": "function"
    },
    {
      "inputs": [
        {
          "internalType": "uint256",
          "name": "id",
          "type": "uint256"
        },
        {
          "internalType": "string",
          "name": "image",
          "type": "string"
        },
        {
          "internalType": "string",
          "name": "title",
          "type": "string"
        },
        {
          "internalType": "string",
          "name": "description",
          "type": "string"
        },
        {
          "internalType": "uint256",
          "name": "startsAt",
          "type": "uint256"
        },
        {
          "internalType": "uint256",
          "name": "endsAt",
          "type": "uint256"
        }
      ],
      "name": "updatePoll",
      "outputs": [],
      "stateMutability": "nonpayable",
      "type": "function"
    },
    {
      "inputs": [
        {
          "internalType": "address",
          "name": "",
          "type": "address"
        }
      ],
      "name": "users",
      "outputs": [
        {
          "internalType": "uint256",
          "name": "id",
          "type": "uint256"
        },
        {
          "internalType": "string",
          "name": "image",
          "type": "string"
        },
        {
          "internalType": "string",
          "name": "fullname",
          "type": "string"
        },
        {
          "internalType": "address",
          "name": "voter",
          "type": "address"
        },
        {
          "internalType": "uint256",
          "name": "votes",
          "type": "uint256"
        }
      ],
      "stateMutability": "view",
      "type": "function"
    },
    {
      "inputs": [
        {
          "internalType": "uint256",
          "name": "id",
          "type": "uint256"
        },
        {
          "internalType": "uint256",
          "name": "cid",
          "type": "uint256"
        }
      ],
      "name": "vote",
      "outputs": [],
      "stateMutability": "nonpayable",
      "type": "function"
    }
  ],
  "bytecode": "0x608060405234801561001057600080fd5b50612125806100206000396000f3fe608060405234801561001057600080fd5b506004361061009e5760003560e01c80639d1c0bc6116100665780639d1c0bc61461011c578063a87430ba1461012f578063b384abef14610153578063dd2b4bd414610166578063f0d0bc451461018657600080fd5b8063029433f0146100a3578063120fe89b146100b85780631a8cbcaa146100d65780631f35b51d146100f65780633ffbd47f14610109575b600080fd5b6100b66100b1366004611afa565b610199565b005b6100c0610508565b6040516100cd9190611cae565b60405180910390f35b6100e96100e4366004611d10565b610783565b6040516100cd9190611d29565b6100b6610104366004611d10565b6109d4565b6100b6610117366004611d43565b610af8565b6100b661012a366004611d10565b610bfd565b61014261013d366004611da7565b610fe7565b6040516100cd959493929190611dd0565b6100b6610161366004611e19565b611130565b610179610174366004611d10565b6113c1565b6040516100cd9190611e3b565b6100b6610194366004611f34565b611621565b33600081815260036020819052604090912001546001600160a01b0316146101dc5760405162461bcd60e51b81526004016101d390611fce565b60405180910390fd5b60008681526008602052604090205460ff1661020a5760405162461bcd60e51b81526004016101d390612005565b336001600160a01b0316600287815481106102275761022761202d565b60009182526020909120600a909102016006015461010090046001600160a01b03161461028c5760405162461bcd60e51b8152602060048201526013602482015272556e617574686f72697a656420656e7469747960681b60448201526064016101d3565b60008451116102d55760405162461bcd60e51b81526020600482015260156024820152745469746c652063616e6e6f7420626520656d70747960581b60448201526064016101d3565b60008351116103265760405162461bcd60e51b815260206004820152601b60248201527f4465736372697074696f6e2063616e6e6f7420626520656d707479000000000060448201526064016101d3565b60008551116103735760405162461bcd60e51b8152602060048201526019602482015278496d6167652055524c2063616e6e6f7420626520656d70747960381b60448201526064016101d3565b600286815481106103865761038661202d565b600091825260209091206006600a90920201015460ff16156103e45760405162461bcd60e51b8152602060048201526017602482015276141bdb1b1a5b99c8185b1c9958591e481cdd185c9d1959604a1b60448201526064016101d3565b8181116104035760405162461bcd60e51b81526004016101d390612043565b83600287815481106104175761041761202d565b90600052602060002090600a0201600201908051906020019061043b929190611904565b5082600287815481106104505761045061202d565b90600052602060002090600a02016003019080519060200190610474929190611904565b5081600287815481106104895761048961202d565b90600052602060002090600a02016007018190555080600287815481106104b2576104b261202d565b90600052602060002090600a02016008018190555084600287815481106104db576104db61202d565b90600052602060002090600a020160010190805190602001906104ff929190611904565b50505050505050565b60606002805480602002602001604051908101604052809291908181526020016000905b8282101561077a57838290600052602060002090600a0201604051806101600160405290816000820154815260200160018201805461056a9061208b565b80601f01602080910402602001604051908101604052809291908181526020018280546105969061208b565b80156105e35780601f106105b8576101008083540402835291602001916105e3565b820191906000526020600020905b8154815290600101906020018083116105c657829003601f168201915b505050505081526020016002820180546105fc9061208b565b80601f01602080910402602001604051908101604052809291908181526020018280546106289061208b565b80156106755780601f1061064a57610100808354040283529160200191610675565b820191906000526020600020905b81548152906001019060200180831161065857829003601f168201915b5050505050815260200160038201805461068e9061208b565b80601f01602080910402602001604051908101604052809291908181526020018280546106ba9061208b565b80156107075780601f106106dc57610100808354040283529160200191610707565b820191906000526020600020905b8154815290600101906020018083116106ea57829003601f168201915b5050509183525050600482015460208083019190915260058301546040830152600683015460ff81161515606084015261010090046001600160a01b03166080830152600783015460a0830152600883015460c083015260099092015460e090910152908252600192909201910161052c565b50505050905090565b61078b611988565b6002828154811061079e5761079e61202d565b90600052602060002090600a020160405180610160016040529081600082015481526020016001820180546107d29061208b565b80601f01602080910402602001604051908101604052809291908181526020018280546107fe9061208b565b801561084b5780601f106108205761010080835404028352916020019161084b565b820191906000526020600020905b81548152906001019060200180831161082e57829003601f168201915b505050505081526020016002820180546108649061208b565b80601f01602080910402602001604051908101604052809291908181526020018280546108909061208b565b80156108dd5780601f106108b2576101008083540402835291602001916108dd565b820191906000526020600020905b8154815290600101906020018083116108c057829003601f168201915b505050505081526020016003820180546108f69061208b565b80601f01602080910402602001604051908101604052809291908181526020018280546109229061208b565b801561096f5780601f106109445761010080835404028352916020019161096f565b820191906000526020600020905b81548152906001019060200180831161095257829003601f168201915b50505091835250506004820154602082015260058201546040820152600682015460ff81161515606083015261010090046001600160a01b03166080820152600782015460a0820152600882015460c082015260099091015460e09091015292915050565b33600081815260036020819052604090912001546001600160a01b031614610a0e5760405162461bcd60e51b81526004016101d390611fce565b60008181526008602052604090205460ff16610a3c5760405162461bcd60e51b81526004016101d390612005565b336001600160a01b031660028281548110610a5957610a5961202d565b60009182526020909120600a909102016006015461010090046001600160a01b031614610abe5760405162461bcd60e51b8152602060048201526013602482015272556e617574686f72697a656420656e7469747960681b60448201526064016101d3565b600160028281548110610ad357610ad361202d565b60009182526020909120600a90910201600601805460ff191691151591909117905550565b610b3a6040518060c0016040528060008152602001606081526020016060815260200160006001600160a01b0316815260200160008152602001606081525090565b60018054906000610b4a836120c6565b9091555081526020808201848152604080840185905233606085018190526000908152600384522083518155905180518493610b8d926001850192910190611904565b5060408201518051610ba9916002840191602090910190611904565b5060608201516003820180546001600160a01b0319166001600160a01b039092169190911790556080820151600482015560a08201518051610bf59160058401916020909101906119ed565b505050505050565b33600081815260036020819052604090912001546001600160a01b031614610c375760405162461bcd60e51b81526004016101d390611fce565b60008181526008602052604090205460ff16610c655760405162461bcd60e51b81526004016101d390612005565b600081815260056020908152604080832033845290915290205460ff1615610cc35760405162461bcd60e51b8152602060048201526011602482015270105b1c9958591e4818dbdb9d195cdd1959607a1b60448201526064016101d3565b336000908152600360209081526040808320815160c08101909252805482526001810180549293919291840191610cf99061208b565b80601f0160208091040260200160405190810160405280929190818152602001828054610d259061208b565b8015610d725780601f10610d4757610100808354040283529160200191610d72565b820191906000526020600020905b815481529060010190602001808311610d5557829003601f168201915b50505050508152602001600282018054610d8b9061208b565b80601f0160208091040260200160405190810160405280929190818152602001828054610db79061208b565b8015610e045780601f10610dd957610100808354040283529160200191610e04565b820191906000526020600020905b815481529060010190602001808311610de757829003601f168201915b505050505081526020016003820160009054906101000a90046001600160a01b03166001600160a01b03166001600160a01b031681526020016004820154815260200160058201805480602002602001604051908101604052809291908181526020018280548015610e9f57602002820191906000526020600020905b81546001600160a01b03168152600190910190602001808311610e81575b505050919092525050336000908152600760205260409020549192505060ff16610fe3576000828152600660208181526040832080546001818101835591855293829020855194909302909201928355838101518051859493610f0793908501920190611904565b5060408201518051610f23916002840191602090910190611904565b5060608201516003820180546001600160a01b0319166001600160a01b039092169190911790556080820151600482015560a08201518051610f6f9160058401916020909101906119ed565b505050600082815260056020908152604080832033845282528083208054600160ff19918216811790925560079093529220805490911690911790556002805483908110610fbf57610fbf61202d565b6000918252602082206005600a9092020101805491610fdd836120c6565b91905055505b5050565b600360205260009081526040902080546001820180549192916110099061208b565b80601f01602080910402602001604051908101604052809291908181526020018280546110359061208b565b80156110825780601f1061105757610100808354040283529160200191611082565b820191906000526020600020905b81548152906001019060200180831161106557829003601f168201915b5050505050908060020180546110979061208b565b80601f01602080910402602001604051908101604052809291908181526020018280546110c39061208b565b80156111105780601f106110e557610100808354040283529160200191611110565b820191906000526020600020905b8154815290600101906020018083116110f357829003601f168201915b50505050600383015460049093015491926001600160a01b031691905085565b33600081815260036020819052604090912001546001600160a01b03161461116a5760405162461bcd60e51b81526004016101d390611fce565b60008281526008602052604090205460ff166111985760405162461bcd60e51b81526004016101d390612005565b600082815260046020908152604080832033845290915290205460ff16156111f25760405162461bcd60e51b815260206004820152600d60248201526c105b1c9958591e481d9bdd1959609a1b60448201526064016101d3565b600282815481106112055761120561202d565b600091825260209091206006600a90920201015460ff16156112635760405162461bcd60e51b8152602060048201526017602482015276141bdb1b1a5b99c8185b1c9958591e481cdd185c9d1959604a1b60448201526064016101d3565b600282815481106112765761127661202d565b90600052602060002090600a0201600701546002838154811061129b5761129b61202d565b90600052602060002090600a020160080154116112ca5760405162461bcd60e51b81526004016101d390612043565b600282815481106112dd576112dd61202d565b6000918252602082206004600a90920201018054916112fb836120c6565b909155505060008281526006602052604090208054829081106113205761132061202d565b60009182526020822060046006909202010180549161133e836120c6565b909155505060008281526006602052604090208054829081106113635761136361202d565b600091825260208083206005600690930201919091018054600181810183559184528284200180546001600160a01b0319163390811790915594835260048252604080842095845294909152929020805460ff191690921790915550565b60008181526008602052604090205460609060ff166113f25760405162461bcd60e51b81526004016101d390612005565b600082815260066020908152604080832080548251818502810185019093528083529193909284015b8282101561161657838290600052602060002090600602016040518060c0016040529081600082015481526020016001820180546114589061208b565b80601f01602080910402602001604051908101604052809291908181526020018280546114849061208b565b80156114d15780601f106114a6576101008083540402835291602001916114d1565b820191906000526020600020905b8154815290600101906020018083116114b457829003601f168201915b505050505081526020016002820180546114ea9061208b565b80601f01602080910402602001604051908101604052809291908181526020018280546115169061208b565b80156115635780601f1061153857610100808354040283529160200191611563565b820191906000526020600020905b81548152906001019060200180831161154657829003601f168201915b505050505081526020016003820160009054906101000a90046001600160a01b03166001600160a01b03166001600160a01b0316815260200160048201548152602001600582018054806020026020016040519081016040528092919081815260200182805480156115fe57602002820191906000526020600020905b81546001600160a01b031681526001909101906020018083116115e0575b5050505050815250508152602001906001019061141b565b505050509050919050565b33600081815260036020819052604090912001546001600160a01b03161461165b5760405162461bcd60e51b81526004016101d390611fce565b60008451116116a45760405162461bcd60e51b81526020600482015260156024820152745469746c652063616e6e6f7420626520656d70747960581b60448201526064016101d3565b60008351116116f55760405162461bcd60e51b815260206004820152601b60248201527f4465736372697074696f6e2063616e6e6f7420626520656d707479000000000060448201526064016101d3565b60008551116117425760405162461bcd60e51b8152602060048201526019602482015278496d6167652055524c2063616e6e6f7420626520656d70747960381b60448201526064016101d3565b60008211801561175157508181115b61176d5760405162461bcd60e51b81526004016101d390612043565b611775611988565b600080549080611784836120c6565b90915550815260408101859052606081018490526020808201878152610100830185905261012083018490523360e0840152426101408401526002805460018101825560009190915283517f405787fa12a823e0f2b7631cc41b3ba8828b3321ca811111fa75cd3aa3bb5ace600a90920291820190815591518051859461182f937f405787fa12a823e0f2b7631cc41b3ba8828b3321ca811111fa75cd3aa3bb5acf01920190611904565b506040820151805161184b916002840191602090910190611904565b5060608201518051611867916003840191602090910190611904565b506080820151600482015560a0820151600582015560c082015160068201805460e08501516001600160a81b0319909116921515610100600160a81b031916929092176101006001600160a01b0390931683021790558201516007820155610120820151600880830191909155610140909201516009909101559051600090815260209190915260409020805460ff191660011790555050505050565b8280546119109061208b565b90600052602060002090601f0160209004810192826119325760008555611978565b82601f1061194b57805160ff1916838001178555611978565b82800160010185558215611978579182015b8281111561197857825182559160200191906001019061195d565b50611984929150611a42565b5090565b60405180610160016040528060008152602001606081526020016060815260200160608152602001600081526020016000815260200160001515815260200160006001600160a01b031681526020016000815260200160008152602001600081525090565b828054828255906000526020600020908101928215611978579160200282015b8281111561197857825182546001600160a01b0319166001600160a01b03909116178255602090920191600190910190611a0d565b5b808211156119845760008155600101611a43565b634e487b7160e01b600052604160045260246000fd5b600082601f830112611a7e57600080fd5b813567ffffffffffffffff80821115611a9957611a99611a57565b604051601f8301601f19908116603f01168101908282118183101715611ac157611ac1611a57565b81604052838152866020858801011115611ada57600080fd5b836020870160208301376000602085830101528094505050505092915050565b60008060008060008060c08789031215611b1357600080fd5b86359550602087013567ffffffffffffffff80821115611b3257600080fd5b611b3e8a838b01611a6d565b96506040890135915080821115611b5457600080fd5b611b608a838b01611a6d565b95506060890135915080821115611b7657600080fd5b50611b8389828a01611a6d565b9350506080870135915060a087013590509295509295509295565b6000815180845260005b81811015611bc457602081850181015186830182015201611ba8565b81811115611bd6576000602083870101525b50601f01601f19169290920160200192915050565b6000610160825184526020830151816020860152611c0b82860182611b9e565b91505060408301518482036040860152611c258282611b9e565b91505060608301518482036060860152611c3f8282611b9e565b9150506080830151608085015260a083015160a085015260c0830151611c6960c086018215159052565b5060e0830151611c8460e08601826001600160a01b03169052565b50610100838101519085015261012080840151908501526101409283015192909301919091525090565b6000602080830181845280855180835260408601915060408160051b870101925083870160005b82811015611d0357603f19888603018452611cf1858351611beb565b94509285019290850190600101611cd5565b5092979650505050505050565b600060208284031215611d2257600080fd5b5035919050565b602081526000611d3c6020830184611beb565b9392505050565b60008060408385031215611d5657600080fd5b823567ffffffffffffffff80821115611d6e57600080fd5b611d7a86838701611a6d565b93506020850135915080821115611d9057600080fd5b50611d9d85828601611a6d565b9150509250929050565b600060208284031215611db957600080fd5b81356001600160a01b0381168114611d3c57600080fd5b85815260a060208201526000611de960a0830187611b9e565b8281036040840152611dfb8187611b9e565b6001600160a01b039590951660608401525050608001529392505050565b60008060408385031215611e2c57600080fd5b50508035926020909101359150565b60006020808301818452808551808352604092508286019150828160051b8701018488016000805b84811015611f2557603f198a8503018652825160c08151865289820151818b880152611e9182880182611b9e565b915050888201518682038a880152611ea98282611b9e565b6060848101516001600160a01b03908116918a0191909152608080860151908a015260a094850151898303958a01959095528451808352948d0194879450918d0192505b81841015611f0f57845181168352938c019360019390930192918c0191611eed565b5050978a01979550505091870191600101611e63565b50919998505050505050505050565b600080600080600060a08688031215611f4c57600080fd5b853567ffffffffffffffff80821115611f6457600080fd5b611f7089838a01611a6d565b96506020880135915080821115611f8657600080fd5b611f9289838a01611a6d565b95506040880135915080821115611fa857600080fd5b50611fb588828901611a6d565b9598949750949560608101359550608001359392505050565b6020808252601b908201527f596f7527766520676f7474612072656769737465722066697273740000000000604082015260600190565b6020808252600e908201526d141bdb1b081b9bdd08199bdd5b9960921b604082015260600190565b634e487b7160e01b600052603260045260246000fd5b60208082526028908201527f456e642064617465206d7573742062652067726561746572207468616e207374604082015267617274206461746560c01b606082015260800190565b600181811c9082168061209f57607f821691505b602082108114156120c057634e487b7160e01b600052602260045260246000fd5b50919050565b60006000198214156120e857634e487b7160e01b600052601160045260246000fd5b506001019056fea2646970667358221220a08b422ccd9d031593ebf3d653a46733fe3f836679e832c3d5c114b74e3dae9564736f6c634300080b0033",
  "linkReferences": {},
  "deployedLinkReferences": {}
}